:100000000C9434020C9451020C9451020C94510241
:100010000C9451020C9451020C9451020C94DB0488
:100020000C9451020C9451020C9453190C945102EB
:100030000C9451020C942D190C9451020C94510201
:100040000C9451020C9451020C9451020C945102E4
:100050000C9451020C94DC040C9451020C94510247
:100060000C9451020C945102AF57B950C24A9745B3
:100070001141133D87395A367E33E8308E2E692C74
:10008000712AA128F5266925F923A22262213720A9
:100090001E1F161E1E1D341C571B851ABF1903195F
:1000A0005018A61704176A16D6154915C21441141C
:1000B000C5134E13DC126E1205129F113D11DF1095
:1000C00084100000140029003E00530069008000E5
:1000D0009700AE00C600DF00F80012012D014901B3
:1000E00065018201A001BE01DE01FF01210244027F
:1000F00068028E02B502DE0209033503640394032D
:10010000C803FE0337047304B404F90443059305DC
:10011000EA054906B3062907AE074808FF08DE09C5
:10012000BA03870358032E030703E402C302A402A1
:10013000880254657374656E2E2E2E006765726991
:100140006E67006C6565722100646566656B746539
:100150007320004261757465696C00547269616353
:1001600000546879726973742E0020756E62656B35
:100170002E004B65696E2C756E62656B2E206F6468
:100180006572006F64657220646566656B7420003B
:1001900054696D656F7574210053656C6273747476
:1001A000657374202E2E005472656E6E6520506942
:1001B0006E7321005465737420456E64650042615E
:1001C000742E20004F4B002D4D4F53004A4645548E
:1001D000002D4947425400433D00423D004E504EE1
:1001E00000504E5000203132333D0055663D002016
:1001F00056743D004056673D002D032D0043656C4D
:100200006C21005643433D00204553523D0020568B
:100210006C6F73733D004C3D00202049723D0055CA
:100220006E6B616C6962726965727421205A756DBA
:10023000A04B616C696272696572656E206B6C655A
:100240006D6D652033A050696E6E65207A7573619F
:100250006D6D656E20756E642073746172746520B7
:100260006D6974206465722054617374652E204238
:100270006573746165746967652064656E20536594
:100280006C62737474657374206D69742064657234
:1002900020546173746520696E2032732E2054726D
:1002A000656E6E65206469652050696E6E652065B7
:1002B000727374206E61636820646572204D656C92
:1002C00064756E6720225472656E6E65A050696E0B
:1002D00073212220756E64207363686C6965737383
:1002E000652065727374206E616368206465722096
:1002F0004D656C64756E672022312D032D33A03E51
:100300003130306E46222065696E656E20677574E7
:10031000656E204B6F6E64656E7361746F72206DD5
:100320006974206D65687220616C73203130306EA5
:100330004620616E2050696EA031A02BA033206151
:100340006E2E20536F66747761726520756E64201F
:10035000446F6B756D656E746174696F6E2069733F
:1003600074206175662073766E3A2F2F206D696B4D
:10037000726F636F6E74726F6C6C65722E206E6537
:10038000742F7472616E736973746F722074657305
:1003900074657220002D012D002D022D002A0120F0
:1003A00020002D07062D0056657273696F6E20318F
:1003B0002E31306B00494345303D00494345733D84
:1003C000005265663D005248663D0052482D00527D
:1003D000482B002B524C2D20313220313320323328
:1003E000002B52482D20313220313320323300523D
:1003F000482F524C0052303D0052695F48693D0021
:1004000052695F4C6F3D0043302000203530487A00
:100410000011191D1F1D1911001113171F1713119A
:10042000001B1B1B1B1B1B1B00000F0818080F00C9
:1004300000001E0203021E0000041F111111111FF3
:1004400004010410020820090A0C706EE46D006BB0
:100450004D203E3130306E46005245465F433D00F0
:100460005245465F523D000011241FBECFEFD8E039
:10047000DEBFCDBF11E0A0E0B1E0EAE2F8E402C0E7
:1004800005900D92A230B107D9F711E0A2E0B1E0DA
:1004900001C01D92AE39B107E1F70E94C2090C9468
:1004A00013240C94000080FD5C9A80FF5C98549AA1
:1004B00000005D9A559A589859985A985B9864FD2F
:1004C000589A509A65FD599A519A66FD5A9A529ACD
:1004D00067FD5B9A539A00005D980E94D90487FDDE
:1004E00010C05D9A589859985A985B9860FD589A30
:1004F00061FD599A62FD5A9A63FD5B9A00005D980E
:1005000058D208958FEE8F5C1F93182F81E0612FD2
:10051000CADF46D2183048F41630B0F4123061F019
:10052000133071F01130D1F405C0143E79F0143F4E
:10053000A9F40EC08EE305C08CE703D28CE30FC094
:100540008CE7FFD18CE70BC082E509C085E707C0C7
:100550008FE4F7D188E6F5D18DE601C0812FF1D186
:100560001F9108958DE0EDD18AE0EBD108951F939E
:10057000182F80E0612F97DF13D2103811F0103C54
:1005800009F4F0DF1F91089581E0F1DF82E090E04F
:1005900014D2E8DF80E8EBDF089586E090E00DD22A
:1005A00080E860E380DF81E090E007D280E860E3EC
:1005B0007ADFF0D180E860E376DFECD180E860E2BA
:1005C00072DF82E090E0F9D188E2D1DF8CE0CFDF0A
:1005D00086E0CDDFD9DF0895EF92FF92CF93DF93CE
:1005E000E82EE7017E01F92EE70101C08DDF899138
:1005F0008823E1F7DF91CF91FF90EF900895CF939B
:10060000DF93EC01FE018591882329F0803819F0F1
:100610007BDF2196F7CFDF91CF9108950F931F9342
:10062000CF93DF938C01C0E0D0E0F801EC0FFD1F09
:1006300085916ADF2196C830D105B9F7DF91CF9156
:100640001F910F9108951F9314E15CDF1150E9F79A
:100650001F91089597FF09C08F939F938DE254DFF8
:100660009F918F91909581959F4F69E171E04AE04C
:1006700050E00E94D223B0DF0895EF92FF920F93D3
:100680001F93182F062FF42E85EE91E0B8DFEE248D
:10069000E0914C01F0914D018485E81611F4812F11
:1006A00009C08285E81611F4802F04C08385E816FE
:1006B00011F48F2D29DFE3948E2D833049F71F919C
:1006C0000F91FF90EF9008950F93E5E2F1E0880F0E
:1006D000880F880FE80FF11D6081718182819381FD
:1006E000643671058105910570F420910201222381
:1006F00051F4848165810E94C620BC0180E090E0B5
:100700004EEF03E002C04FEF04E024EF5CD0FADECE
:100710000F9108950F93833078F4E2E9F1E0E80F48
:10072000F11DE80FF11D60817181812D912D4DEF3B
:1007300026E503E048D0E6DE0F9108951F93182FB9
:1007400080916E01882319F0DDDE80E0DDDE80EC33
:100750000EDF8BEE91E053DF812F82958F70DADF11
:10076000812F8F70D7DF1F910895DF92EF92FF9254
:100770000F931F93CF93DF93D0900D018D2D829512
:100780008F70C6E8D1E07E01E80EF11CF701808190
:10079000BADE05E913E0C80132DFF7018681B3DE76
:1007A000C8012DDF8D2D8370C80FD11D8E81ABDE6A
:1007B00080910D01C3DFDF91CF911F910F91FF90C9
:1007C000EF90DF9008957F928F929F92AF92BF92A9
:1007D000CF92DF92EF92FF920F931F93DF93CF930D
:1007E000CDB7DEB72F970FB6F894DEBF0FBECDBFE3
:1007F0006B017C01142F722E033019F488EE93E004
:100800001EC0043019F480E197E219C084E690E03C
:1008100016C085E090E0A0E0B0E0C80ED91EEA1E48
:10082000FB1EC701B6012AE030E040E050E00E9424
:100830009523C901DA016C017D011F5F03C04C01E2
:10084000AA24BB24C814D904EA04FB0410F7412FDE
:10085000445F47FF02C040E003C0433108F042E17B
:10086000842F63E00E947523E82F842F0E94752354
:10087000B92E992321F0EF5F83E0891BB82EF0E0B9
:10088000E65BFB4F8490C6018E010F5F1F4FB801DE
:100890004AE050E00E94D223F80101900020E9F7DD
:1008A00031979E2E901AD92CDB181D1444F08EE23D
:1008B0000E948402DD2019F080E30E948402BB20A4
:1008C00011F4DD24DA945E010894A11CB11C8501A9
:1008D00081E0E82EF12CCD2CDD24C7FCD0940FC094
:1008E000D8018C910E948402EC14FD0419F48EE26C
:1008F0000E9484020F5F1F4F0894E11CF11C802F9F
:100900008A19891568F3882019F0882D0E948402BD
:10091000772019F0872D0E9484022F960FB6F89445
:10092000DEBF0FBECDBFCF91DF911F910F91FF9022
:10093000EF90DF90CF90BF90AF909F908F907F907F
:1009400008952F935FB72F932AE08095089410F4B1
:10095000439802C0439A000022D029D086952A9558
:10096000B1F72F915FBF2F910895089503D002D062
:1009700001D000D000D003D002D001D000D0A89583
:1009800000D003D002D001D000D000D003D002D0DC
:1009900001D000D000D003D002D001D000D000D0D0
:1009A00003D002D001D000D000D003D002D001D0BB
:1009B00000D00000089518951895AC0192E01DC074
:1009C0004230510520F440E050E027E103C042509E
:1009D00050402EE38091B200280F2093B3009093F3
:1009E000700083B7817F866083BF83B7816083BFD8
:1009F000889583B78E7F83BFA8954115510501F770
:100A00001092700008950F93CF93DF93E82FF0E0DA
:100A1000E95BFB4FE491E8B9E860E7B915B8E62F68
:100A2000F0E0EC5BFB4FE491E4B9862F0E94961C4A
:100A3000EC01009701F189E192E00E94FF02BE0102
:100A400080E090E020EA36E841E050E00E94562342
:100A500028E937EB40E050E00E94952340E050E069
:100A6000CA01B90147EF21E402E00E94E30388E0F4
:100A700087B988B914B8DF91CF910F91089580910B
:100A80004801882369F483E090E00E94E823682FFE
:100A90006F5F86E090E00E94F02381E08093480140
:100AA00008951F93CF93DF93162F98E097B998B9C5
:100AB000E82FF0E0EF5BFB4F949195B9E62FF0E063
:100AC000EF5BFB4FE491E92BE4B90E949C1CEC0125
:100AD000812F0E949C1C209141013091420136954A
:100AE0002795B901645170406C177D0778F4A9010E
:100AF0004C5E5F4FC417D50748F46817790730F488
:100B000020E08417950718F421E001C020E014B814
:100B1000822FDF91CF911F9108950F931F9380E053
:100B200061E00E945105082F80E062E00E945105BB
:100B3000182F81E062E00E945105100F810F1F9174
:100B40000F9108952F923F924F925F926F927F92F2
:100B50008F929F92AF92BF92CF92DF92EF92FF92CD
:100B60000F931F93DF93CF93CDB7DEB72E970FB6BA
:100B7000F894DEBF0FBECDBF0E948D05833009F013
:100B8000E8C30E94C40289E991E00E94FF0280EC60
:100B90000E94B7028FE30E94840210E04F9908C0C0
:100BA00082E090E00E94DD041F5F1233B9F70AC0B3
:100BB00010E04F9B0EC082E090E00E94DD041F5FBA
:100BC000183CB9F70E94C40287EA93E00E94FF0232
:100BD000C0C380EC0E94B70285EF93E00E94FF0241
:100BE0008CE090E060E00E94F0238DE090E060E017
:100BF0000E94F0238BE090E060E00E94F02382E00E
:100C000060E00E94C6209A83898382E061E00E94AE
:100C1000C6209C838B8381E060E00E94C6207C011B
:100C20009E838D83A980BA80B501882777FD809542
:100C3000982F4EEF20E203E00E94E303CB80DC809C
:100C4000B601882777FD8095982F4EEF20E20E940D
:100C5000E303B701882777FD8095982F4EEF24EFA7
:100C60000E94E3032AE5A216B1042CF48CE090E084
:100C70006A2D0E94F0238AE5C816D1042CF48DE079
:100C800090E06C2D0E94F0239AE5E916F1042CF413
:100C90008BE090E06E2D0E94F0230E94E61831E078
:100CA000A32EB12C22E0622E98E0C92E80E2982E6D
:100CB00064C180EC0E94B7020E94230380E80E9476
:100CC000B7020E94230380E80E94B70284E50E94D5
:100CD0008402C5010E9435030E948202E1E0DE1613
:100CE00009F50E94FC1C81EC93E00E94FF026091D8
:100CF00045017091460180E090E04DEF26E504E06B
:100D00000E94E30380EC0E94B70286EC93E00E940D
:100D1000FF0280910001909101010E943503309201
:100D20003D010BC1F2E0DF1699F560914101709130
:100D3000420180E090E028E53BE140E050E00E9485
:100D4000562324EC36E340E050E00E94B7237901BB
:100D50008A0181E085B925E024B980E00E948A1CDF
:100D60008E199F099A83898374B880E00E948A1C37
:100D70008E199F099C838B8355B844B881E00E94EB
:100D80008A1C8E199F099E838D8383ED93E0BCC0DE
:100D900083E0D81669F565B89AE094B980E00E94BE
:100DA0008A1C209141013091420136952795388760
:100DB0002F83821B930B9A838983E2E2E4B980E05C
:100DC0000E948A1C9C018F819885281B390B3C83CB
:100DD0002B83C5B824B881E00E948A1C9C018F81B6
:100DE0009885281B390B3E832D8381EE93E08CC0C0
:100DF000F4E0DF1661F487EA91E00E94FF020E94AE
:100E00008D05882309F486C012E0812E83C025E079
:100E1000D216B1F415B864B880E00E948A1C9A8397
:100E20008983C4B881E00E948A1C9C838B8394B818
:100E300082E00E948A1C9E838D838BEC93E064C0C9
:100E400086E0D81651F564B865B880E00E948A1C27
:100E50002091410130914201821B930B9A83898337
:100E6000C4B8C5B881E00E948A1C2091410130912C
:100E70004201821B930B9C838B8394B895B882E0CC
:100E80000E948A1C2091410130914201821B930BE8
:100E90009E838D838FEC93E037C097E0D916B9F528
:100EA000609141017091420180E090E028E53BE1D2
:100EB00040E050E00E94562328EB32ED47E450E03A
:100EC0000E94952379018A0165B8E3E0E4B980E0E6
:100ED0000E948A1C8E199F099A838983C5B8FCE0F9
:100EE000F4B981E00E948A1C8E199F099C838B8330
:100EF00095B820E324B982E00E948A1C8E199F09CC
:100F00009E838D838FEE93E00E94FF0203C081E0F9
:100F1000D81699F080EC0E94B70289819A810E94CC
:100F20002A030E9482028B819C810E942A030E94D4
:100F300082028D819E810E942A03C7B8C8B814B866
:100F400015B84F9B0FC084E690E00E94DD044F9BD4
:100F500009C084E690E00E94DD04839493E0981534
:100F600008F0A7CE88EC90E00E94DD040894A11C54
:100F7000B11CE8E0AE16B10469F08824DA2CB8E2BE
:100F80002B2EA1E17A2EF4E05F2EE4E14E2E7EEBD3
:100F9000372E8FCE0E94C40289EF93E00E94FF0299
:100FA000609143017091440180E090E04FEF24EFA5
:100FB00003E00E94E30380EC0E94B70280E094E02B
:100FC0000E94FF026091490170914A0180E090E027
:100FD0004FEF24EF0E94E3030E94E61810921401E1
:100FE0000E94C40287E094E00E94FF0282E060E079
:100FF0000E94751980917801909179019C878B8767
:1010000082E061E00E9475198091780190917901E8
:101010009E878D8781E060E00E947519809178013C
:10102000909179019E838D8380E062E00E94751922
:1010300080917801909179019C838B8381E062E0BB
:101040000E94751980917801909179019A8789871A
:1010500080E061E00E94751980917801909179019A
:101060009A83898398878F836B857C85882777FD12
:101070008095982F40E020E20E94E3036D857E85F5
:10108000882777FD8095982F40E020E20E94E303B7
:101090006D817E81882777FD8095982F44EF26E427
:1010A0000E94E3036E010894C11CD11C76019E01CD
:1010B000215F3F4FF701808191810A97853B910520
:1010C000F8F482E090E0E80EF91EE216F30691F7DC
:1010D00003E010E0F60160816E5EC8010E94F0231B
:1010E00082E090E0C80ED91E0F5F1F4FCE14DF04C0
:1010F00089F780EC0E94B70284EC91E00E94FF0225
:101100000E94E618EE24FF2460E7C62E61E0D62E8A
:101110000E94C40281E30E94840289EF91E00E9450
:10112000FF0283E30E94840281E594E00E94FF02B3
:101130001092140182E060E00E94751960917001C4
:1011400070917101809172019091730110918201EF
:101150000BC02AE030E040E050E00E949523C90136
:10116000DA01BC01CD011F5F173F9CF36093700152
:10117000F60171838283938310938201173F09F0F4
:10118000B9C0603671058105910508F4B3C0605F90
:1011900075458040904008F0ADC060918401709129
:1011A00085012FEF6B3672070CF4A4C06639710508
:1011B0000CF0A0C0F39481E08F1508F09CC081E092
:1011C00090E00E94FE230E94C40289E594E00E9400
:1011D000FF0280918401909185010E942A0388E09A
:1011E00088B989E087B980E284B982E00E949C1CBA
:1011F000855D9340D4F714B81092400110923F01DE
:1012000082E00E949C1C9A83898380E090E00E9487
:10121000E823992787FD909520914501309146015B
:10122000820F931F9093400180933F0182E00E94C0
:101230009C1C9C01220F331F3C832B831092400186
:1012400010923F0182E00E949C1C4C019E838D8382
:1012500080E090E00E94E823992787FD90956090B8
:10126000450170904601860D971D90934001809333
:101270003F01AB80BC8080E090E00E94E823E980E1
:10128000FA80EA18FB08E80CF91C0027F7FC009527
:10129000102F282F332727FD3095260D371D40E0CE
:1012A00050E0C801B7010E945623CC24B7FCC0947B
:1012B000DC2CA60195010E94B723022F80EC0E942E
:1012C000B70280E694E00E94FF0280E090E00E9476
:1012D000E823182F1D5F100F80E090E0612F0E941F
:1012E000F023812F992787FD90950E942A030E9461
:1012F000E6181BC0FF2480EC0E94B70260917001C9
:1013000070917101809172019091730140918201FD
:1013100026E404E00E94E30388E290E00E94DD04FA
:10132000E394F0E4EF1609F0F3CE89E180933D01F8
:101330000E94C40287EA93E00E94FF0280EC0E94B0
:10134000B70284EB91E00E94FF02109214010E9408
:10135000E6182E960FB6F894DEBF0FBECDBFCF9124
:10136000DF911F910F91FF90EF90DF90CF90BF9092
:10137000AF909F908F907F906F905F904F903F9035
:101380002F900895AF92BF92CF92DF92EF92FF928B
:101390000F931F93CF93DF9380E48AB98BB986E8CC
:1013A00080937A0014B784B7877F84BF88E10FB633
:1013B000F89480936000109260000FBE86EA8093DC
:1013C000640088E380937E001092B00087E08093F1
:1013D000B10078940E94CD0213FF0AC080E80E94F9
:1013E000B70280E991E00E94FF0288E592E09CC08C
:1013F00088E40E94B70281E194E00E940E0380E538
:101400000E94B70289E194E00E940E0388E50E94E1
:10141000B70281E294E00E940E0388E70E94B702BF
:1014200089E294E00E940E0380E70E94B70281E304
:1014300094E00E940E0380E40E94B70289E394E0E6
:101440000E940E0380E185BF0EE4A02E01E0B02EC5
:10145000C0E6D1E0109214011092120110926D01B9
:1014600010925B011092130110924B010E94C40272
:1014700088E087B910926E0110928001109281016C
:10148000109202010E94B20210923E010E94FC1CC6
:1014900080E80E94B70280E090E00E94E82399274C
:1014A00087FD90952091450130914601820F931F51
:1014B0009093400180933F0185E00E949C1C85E051
:1014C0000E94961C90936501809364018EEB91E0DD
:1014D0000E94FF026091640170916501660F771FA1
:1014E000660F771F80E090E0609370017093710148
:1014F00080937201909373014DEF26E502E00E9404
:10150000E3030E948202809164019091650122E0D0
:101510008930920780F4875D914050F483E491E034
:101520000E94FF0280E991E00E94DD041BB81EC505
:101530008CE391E002C084EC91E00E94FF028FE016
:1015400028E130E00FB6F894A895209360000FBE14
:10155000809360000E94811880914B018823B1F034
:1015600080EC0E94B70283E092E00E94FF0260914B
:1015700041017091420180E090E04DEF26E503E0EB
:101580000E94E30388EC90E00E94DD0480EC0E945E
:10159000B7020E94E21780911401883039F50E9449
:1015A000C4028DEF91E00E94FF0280EC0E94B7021E
:1015B000609103017091040180E090E04DEF26E519
:1015C00003E00E94E3030E94820260910501709192
:1015D000060180E090E04DEF26E50E94E3030E94C3
:1015E00082026091070170910801CCC210924801FB
:1015F0008CE00E94B70283E090E00E94E823182F5D
:1016000086E090E00E94E823181731F081E0809393
:1016100048018EE00E94B7020E94A20580EC0E9461
:10162000B70282E391E00E94FF0280E061E042E0C5
:101630000E94C30F81E060E042E00E94C30F80E09F
:1016400062E041E00E94C30F82E060E041E00E945E
:10165000C30F81E062E040E00E94C30F82E061E0DE
:1016600040E00E94C30F90916E01992379F0E92F19
:10167000F0E0B3E0EE0FFF1FBA95E1F7E35EFE4F37
:101680008781882319F4915090936E018091140101
:101690008823E1F483E40E9484020E94E2171092FE
:1016A000740110927501109276011092770184EF07
:1016B0008093830182E060E00E94751982E061E01E
:1016C0000E94751981E060E00E9475190E94C402B1
:1016D000B0924D01A0924C0180911401853019F413
:1016E00081E691E004C08630A9F48BE591E00E9488
:1016F000FF028BE467E441E40E943D0380EC0E941A
:10170000B7028BEE91E00E94FF026091520170914E
:101710005301A9C3873009F04FC0809180010E9416
:10172000830289EF91E00E94FF02809181010E9473
:1017300083020E949C2280917E0190917F01892BDF
:1017400079F08EE092E00E94FF0260917E0170913C
:101750007F0180E090E04FEF25E202E00E94E3038A
:1017600080EC0E94B70260917401709175018091C4
:101770007601909177014091830126E404E00E9474
:10178000E30380918101609180010E94C6209093C3
:101790007D0180937C018A5F9F4F08F06BC388E0D6
:1017A00092E00E94FF0260917C0170917D0180E0D7
:1017B00090E04EEF24EF5BC3823009F0EBC08091E4
:1017C00012018130E1F59091860180918C0198178A
:1017D00050F4892F0E94830285E993E00E94FF0262
:1017E00080918C0108C00E94830289E993E00E94E5
:1017F000FF02809186010E94830280918C0160919A
:1018000086010E94030580E70E949E0387ED91E018
:101810000E94FF0280918C01609186010E947519DF
:1018200060917001709171018091720190917301CA
:101830004091820126E403E00E94E3037EC38230EC
:1018400009F047C082E30E9484028DE993E00E9480
:10185000FF028091860130918701831799F480916E
:101860008C010E94830289E993E00E94FF0280912B
:1018700086010E94830285E993E00E94FF02809125
:101880008D0116C090918C0120918D019217B1F4B9
:101890000E94830285E993E00E94FF0280918C01FF
:1018A0000E94830289E993E00E94FF0280918701F0
:1018B0000E94830281E00E949E033FC3931711F4AC
:1018C00081E004C0281709F04EC080E180930D012B
:1018D00047C0833009F047C083E380930D019091A6
:1018E0008C0180918701981719F481E080930D0194
:1018F0009091860180918D01981719F480E1809371
:101900000D0190918C0180918801981719F482E063
:1019100080930D019091860180918E01981719F4A2
:1019200080E280930D0190918D018091880198173C
:1019300019F482E180930D019091870180918E01CD
:10194000981719F481E280930D0180910D01823284
:1019500050F483E30E9484028DE993E00E94FF0229
:101960000E94B503EAC283E591E00E94FF028AE685
:1019700091E00E94FF0280EC0E94B70283E891E0B0
:101980000E94FF0280911201805D0E94840285E91D
:1019900093E064C2833009F0FAC080916D0188231E
:1019A00099F180915B01882379F180915A016091CE
:1019B00058010E947519E0907001F090710100913A
:1019C000720110917301D090820180916A0160913F
:1019D0006C010E94751980918201D81671F4809172
:1019E000700190917101A0917201B0917301E8169C
:1019F000F9060A071B0718F004C0D81614F48DE086
:101A000001C08CE08093130180916D01882379F0EF
:101A100080915B01882359F04F9909C0809113018F
:101A20008C3011F48DE001C08CE080931301809123
:101A300013018C3061F48DED91E00E94FF028091E2
:101A40006D01882399F080E70E9484020FC081EE27
:101A500091E00E94FF0280915B01882319F08EE6DD
:101A60000E948402D0934D01C0934C010E948202D7
:101A700010E029C0A12FB0E0E0914C01F0914D01A0
:101A80009285AA57BE4F8C918917E1F016968C91DA
:101A90008917C1F0809113018C3039F4909159016C
:101AA00080915A01891738F009C090916B0180919B
:101AB0006C01981718F485E993E002C089E993E076
:101AC0000E94FF021F5F80911201181798F285E4AF
:101AD00062E443E40E943D0380EC0E94B702E0917F
:101AE0004C01F0914D0186819781892B99F085EB0E
:101AF00093E00E94FF02E0914C01F0914D0166815C
:101B0000778180E090E04BEF21E403E00E94E30363
:101B10000E94E618E0914C01F0914D01808591857D
:101B2000892B99F08BEB93E00E94FF02E0914C012E
:101B3000F0914D016085718580E090E04BEF21E4EC
:101B400003E00E94E3030E94E6188AED91E00E9400
:101B5000FF02E0914C01F0914D0160817181828121
:101B6000938140E020E003E00E94E3030E948202B0
:101B70008BEE91E00E94FF02E0914C01F0914D014B
:101B80006481758180E090E04DEF26E571C184307D
:101B900009F0BBC08091130184FF08C080E50E945A
:101BA0008402D0934D01C0934C0103C08EE40E9487
:101BB00084028DE20E94840280911301182F1F700D
:101BC000143019F48CEC91E013C085FF02C084E45A
:101BD00001C085E40E948402133041F481ED91E05C
:101BE0000E94FF0285E467E443E407C087EC91E0CC
:101BF0000E94FF0283E567E444E40E943D03809174
:101C00001201813009F03FC08091130184FF07C0A9
:101C100090916B0180916C01981738F017C09091EA
:101C2000590180915A01891788F481E00E94840249
:101C300080EC0E94B702809186010E94830285E9B0
:101C400093E00E94FF0280918C0110C082E00E940C
:101C5000840280EC0E94B70280918C010E94830272
:101C600089E993E00E94FF02809186010E9483022D
:101C70000E9482028BEE91E00E94FF0280E00E94AF
:101C80008A030E94E61880EC0E94B702809113013B
:101C900085FD1DC087ED91E00E94FF02E0914C019F
:101CA000F0914D01828564850E94751960917001E3
:101CB0007091710180917201909173014091820144
:101CC00026E403E00E94E3038FEE91E015C089E46F
:101CD0000E9484028DE30E948402E0914C01F09105
:101CE0004D016681778180E090E04BEF21E402E0D6
:101CF0000E94E30384EF91E00E94FF02E0914C0117
:101D0000F0914D0160857185AEC060916E016623D2
:101D100009F497C0613071F480912A010E94830216
:101D200082EA93E00E94FF02809129010E948302CF
:101D300010E054C020912D0130912E0140912F01CF
:101D4000509130018091250190912601A0912701A9
:101D5000B0912801623069F110E082179307A4075F
:101D6000B50708F411E0E12FF0E0A3E0EE0FFF1F4C
:101D7000AA95E1F7EB5DFE4F2091350130913601D8
:101D8000409137015091380180819181A281B381C6
:101D900082179307A407B50760F0113029F081E39B
:101DA00003E3E2E3FE2E0AC081E302E373E3F72ECE
:101DB00005C082E301E363E3F62E12E00E94840291
:101DC00082EA93E00E94FF02802F0E94840282EA4E
:101DD00093E00E94FF028F2D0E94840280EC0E94FB
:101DE000B70280916E018130D1F480E00E946403DB
:101DF0000E943A1E809102018823E1F186E192E07F
:101E00000E94FF026091090170910A0180910B010B
:101E100090910C014091020128E403E029C01123B4
:101E200011F481E003C0113029F480E00E946403C2
:101E300082E004C080E00E94640381E00E946403A9
:101E400019C082E791E00E94FF0280EC0E94B70275
:101E500089E491E00E94FF0283E591E00E94FF0285
:101E600028E833E109C080E090E04DEF26E502E08C
:101E70000E94E30320E137E288E187B94F9BFECF60
:101E8000C9010E94C418882309F0E4CA8CE00E94AA
:101E9000B70280914801882309F449C0C0E0D0E02E
:101EA000DD2436C01491103209F4C82E8F5F3196AC
:101EB0008131C1F7DD2049F488E893E10E94C4181C
:101EC000882389F50E94C40203C080EC0E94B702F7
:101ED000812F00E00DC0F70114910894E11CF11C62
:101EE000112309F1812F8F770E9484020F5F812FC8
:101EF0000C1588F38823B9F0CC0DD11DFE01E15EED
:101F0000FD4FE491E03209F42196D394F1E0DF2211
:101F10005FE1E52E52E0F52EEC0EFD1EF70180E0AC
:101F200040E1C42EBFCF88E893E10E94C4185E98B8
:101F300080E090E00E94C41819C080916E0188234F
:101F400009F498CF88E187B980E197E20E94C4182C
:101F500088E087B90E94C40280911201805D0E94CE
:101F600084028DE993E00E94FF02CFCE80E090E0F2
:101F7000DF91CF911F910F91FF90EF90DF90CF9065
:101F8000BF90AF9008952F923F924F925F926F92C1
:101F90007F928F929F92AF92BF92CF92DF92EF92F9
:101FA000FF920F931F93DF93CF93CDB7DEB76B975D
:101FB0000FB6F894DEBF0FBECDBF8F8B688F498FF1
:101FC000A895262F30E0F901EF5BFB4F5491588B19
:101FD000F901EC5BFB4F84918F87998D692F70E03D
:101FE000CB018F5B9B4FFC01F491FE876C5B7B4FB9
:101FF000FB01F491FD874F89642F70E0CB018F5B6B
:102000009B4FFC01F491FC87CB018C5B9B4FFC0147
:10201000F491FB87695B7B4FFB01F491FA87295BA5
:102020003B4FF901F491F9872A8528602A8BF860E3
:10203000F98B15B854B927B93A8538B94E85452B6F
:102040004E8B44B9888D0E94961C98878F8358893F
:1020500054B9888D0E94961C1C0114B80E94C604B5
:102060008E8585B99E8994B9888D0E94961C8C01B5
:10207000A889A4B915B8EF81F8858E179F0780F459
:10208000888D0E94961C1C01C801805E9E4F2F8186
:1020900038852817390708F461C418870F8308C0EA
:1020A0008F819885805E9E4F0817190708F456C4E3
:1020B00020916D0180915B0190E0820F911D02974C
:1020C0000CF04CC438EC231631E0330608F4B8C0E9
:1020D0004F815885485C514008F4B2C08D8598897D
:1020E000892B84B9888D0E94901C7C01898D0E9467
:1020F0009C1C8C01AD85A5B9888D0E94901C970110
:10210000295A3D4F4C85BD854B2B2817390708F0C0
:1021100040C088E088B9E989E7B944B945B9898DF3
:102120000E94901C88549F4028F084E08093140102
:1021300082E204C084E08093140184E2809313015E
:10214000F0925301E09252010E151F0540F4C701B1
:10215000801B910B909357018093560104C01092FD
:10216000570110925601B70180E090E028EE33E06D
:1021700040E050E00E94562320910E0130910F0163
:1021800040E050E00E949523309355012093540184
:10219000DCC388E088B9298927B944B945B98F8952
:1021A0000E94901C8C01898D0E949C1C7C013C85A6
:1021B00035B98F890E94901C895A9D4F80179107CD
:1021C00008F0CCC34A8548B95A8957B9898D0E940D
:1021D000901C815D934028F484E08093140182E395
:1021E00004C084E08093140184E3809313010E15EE
:1021F0001F0538F4E01AF10AF0926901E0926801D3
:1022000004C01092690110926801609141017091BF
:102210004201601B710B80E090E028EE33E040E06B
:1022200050E00E945623209115013091160140E0A4
:1022300050E00E949523309367012093660177C197
:1022400088E088B9B989B7B9EC85E5B9FE85EF2B87
:10225000ED8BE4B98F890E94961C2C0100914101FD
:1022600010914201898D0E949C1C3C018A3091058D
:1022700098F514B881E090E00E94DD048C853D85DE
:10228000832B84B98F890E94961C2C01E090410118
:10229000F0904201E81AF90A898D0E949C1C3C01C9
:1022A00000E010E0209115013091160140E050E06F
:1022B00060E677EB87E490E00E949523C801B701C0
:1022C0000E945623930140E050E00E949523C901EB
:1022D000DA015C016D010BC004191509C8018619EA
:1022E0009709B3010E9481235B01CC24DD2414B83B
:1022F00015B84A8548B95A8957B981E090E00E94DB
:10230000DD0489EB281687E0380608F027C39E898C
:1023100094B9888D0E94961C8F559D4008F40DC17C
:1023200014B881E090E00E94DD04BD85E889BE2BF1
:10233000BE83B4B9888D0E94961C8C01898D0E9441
:102340009C1C4C018F890E949C1C9B8F8A8FF1EDF5
:102350008F16F7E09F0608F494C083E08093140181
:102360008DE0809313012016310610F40219130931
:10237000780100E010E020910E0130910F0140E063
:1023800050E060E677EB87E490E00E949523C80177
:10239000B7010E945623940140E050E00E9495232B
:1023A00079018A0180916D01882379F08091600123
:1023B00090916101A0916201B09163018E159F051A
:1023C000A007B10710F020E011C0E0926001F09288
:1023D000610100936201109363012A8D3B8D2819DE
:1023E0003909309365012093640121E080916001F7
:1023F00090916101A0916201B09163018A159B05E2
:10240000AC05BD0578F4A0926001B0926101C09264
:102410006201D092630146185708509265014092BC
:10242000640103C0222309F48EC5B10180E090E06D
:1024300028EE33E040E050E00E945623E0900E0189
:10244000F0900F0100E010E0A80197010E94952391
:1024500030936701209366014F815885BA0180E06F
:1024600090E028EE33E040E050E00E945623A801BF
:1024700097010E949523309369012093680121E020
:1024800062C551E62516310408F057C087E0013DCA
:10249000180708F452C084E08093140182E180930D
:1024A000130106501F4FAA8DBB8D0A171B0718F486
:1024B00083E18093130109890770898D806480937B
:1024C0007C0010E0A1E0CA2ED12CFFEFEF2EF3E04C
:1024D000FF2EA8958E8561E00E94C617BE81B4B913
:1024E00086B18023E9F3E889E4B980917A008064B9
:1024F00080937A0080917A0086FDFCCF80917800ED
:10250000909179009701281B390BC20ED31E1F5FD3
:102510001B30F9F6C601880F991F880F991F69E0D3
:1025200070E00E948123709369016093680180913B
:102530006D018F5F80936D01A2CF3E8934B94E85C6
:1025400045B9888D0E94961C9D838C83898D0E943D
:102550009C1C2C016091410170914201681B790B18
:102560006A307105C0F514B881E090E00E94DD0486
:102570008D855889852B84B98D8585B9888D0E9474
:10258000961C9D838C83898D0E949C1C2C01AC81A0
:10259000BD817D0100E010E020910E0130910F011E
:1025A00040E050E060E677EB87E490E00E949523FE
:1025B000C801B7010E945623209141013091420188
:1025C0002419350940E050E00E949523C901DA0141
:1025D0003C014D0109C08C819D81861B970B0E9497
:1025E00081233B0188249924B989B7B988E088B947
:1025F000ED89E4B9FC85F5B92091410130914201A2
:102600003B832A838F890E94961C9C8B8B8B3D89F0
:1026100035B98F890E94961C9B8F8A8F898D0E9465
:102620009C1C7C01888D0E949C1C5C014A8D5B8DEA
:102630004054564008F08FC19C8595B98F890E94FF
:10264000961C6C01AC85A4B98F890E94961C8C01E4
:1026500015B881E090E00E94DD04BC85B5B98F8992
:102660000E94961C0054164008F05EC081539141B0
:1026700008F45AC08A8D9B8D8A569F4FC816D9067A
:1026800008F052C085E08093140180915B018F5F58
:1026900080935B01EA18FB08F0925301E09252012B
:1026A0002A8D3B8D2A193B093093570120935601FF
:1026B00014B815B8398538B981E090E00E94DD047E
:1026C0004C8544B98F890E94961C853F910508F07E
:1026D0004BC45D8954B9898D0E94961C815D9340DD
:1026E00008F442C48F890E949C1C8D5D924008F4BE
:1026F0003BC4EC85E4B98F890E94961C8D5D9240A5
:1027000008F432C42C8525B981E090E00E94DD04F4
:1027100015B88F890E94961C853F910508F024C446
:1027200086E08093140120C43C854D85342B398389
:1027300034B935B98F890E948A1C8C01E09041011F
:10274000F0904201E81AF90A898D0E949C1C6C01E4
:1027500080914101909142018C199D099B8F8A8F34
:10276000888D0E949C1C5C01AA8DBB8DAE5FB94018
:1027700008F49AC083E0809314018CE080931301E5
:102780002E143F0410F4E218F30800E010E020914A
:1027900015013091160140E050E060E677EB87E4E8
:1027A00090E00E949523C801B7010E945623AA8D8C
:1027B000BB8D9D0140E050E00E94952379018A0184
:1027C00080915B01882379F080914E0190914F01B7
:1027D000A0915001B09151018E159F05A007B1073E
:1027E00010F020E00FC0E0924E01F0924F010093F4
:1027F000500110935101CA18DB08D0925301C092C6
:10280000520121E080914E0190914F01A091500121
:10281000B091510186159705A805B90588F4609215
:102820004E0170924F018092500190925101EC81C3
:10283000FD814E1A5F0A509253014092520103C02B
:10284000222309F492C3B10180E090E028EE33E046
:1028500040E050E00E94562320910E0130910F017C
:1028600040E050E00E94952330935501209354019D
:102870002A813B814B895C89241B350BB90180E09F
:1028800090E028EE33E040E050E00E945623209193
:1028900015013091160140E050E00E9495233093DD
:1028A00057012093560160C351E62516310408F004
:1028B00052C089E4E8168DE0F80608F44CC084E0C4
:1028C0008093140182E080931301AAEFB0E0AA0E76
:1028D000BB1EA016B10618F483E0809313010A8989
:1028E0000770898D806480937C0010E071E0E72E92
:1028F000F12CA8958E8560E00E94C617B981B4B905
:10290000B5B986B18023E9F7EC85E4B980917A0006
:10291000806480937A0080917A0086FDFCCF80915C
:10292000780090917900E80EF91E1F5F1B3009F7BF
:10293000C701880F991F880F991F69E070E00E94F6
:102940008123709357016093560180915B018F5FE3
:1029500080935B0109C388E087B988B914B815B8BA
:1029600088E087B9F7EC2F16F1E03F0608F4B3C012
:1029700088B910E009892A89022B07B981E090E023
:102980000E94DD04398937B98F890E949C1C4297C7
:1029900018F01F5F183C89F74B8544B945B98E85FF
:1029A00061E00E94C6178F890E94961C6C015F85AA
:1029B00054B915B88A8987B99A8598B98E8560E027
:1029C0000E94C617A0904101B0904201888D0E94DC
:1029D000961C8C01A889A4B98F890E94961C4C0171
:1029E000888D0E949C1C881A990A88E088B9B98948
:1029F000B7B9EC85E4B9E5B98E8561E00E94C617E8
:102A00008F890E94961C7C01888D0E949C1CE81A6C
:102A1000F90A8E149F0448F4FB85F4B9F5B98F893F
:102A20000E94961C8C01470117C06501C01AD10A8B
:102A30002F8524B915B83A8937B94A8548B98E85A2
:102A400060E00E94C6170091410110914201888DFB
:102A50000E94961C081B190BC40187599040895885
:102A60009141C8F508151905B0F5C60153E09695D2
:102A700087955A95E1F7893C910510F088EC90E034
:102A80008C0D9D1D8815990530F5C40144E096957F
:102A900087954A95E1F78C159D05E8F4809114011E
:102AA000823018F482E08093140180911201E82FA3
:102AB000F0E09F012A573E4F4F89D9014C93588D22
:102AC00016965C93EE0FFF1FEE56FE4F91828082AA
:102AD0008F5F8093120120915B0180916D0190E0E6
:102AE000820F911D892B09F010C2A8958091410198
:102AF00090914201880F991F880F991F909342016E
:102B00008093410180913F0190914001880F991F6E
:102B1000880F991F9093400180933F018EEB809323
:102B20003D0188E088B9898987B99C8594B995B9B0
:102B3000FF24F39400E010E0888D0E94961C6C0145
:102B40008F890E949C1C1C01801B910B97FF03C066
:102B5000909581959F4F03975CF415B8AB85A4B908
:102B60008F890E94961C8135910508F0B3C107C07A
:102B7000A895F3948101B9E1FB16F1F6ABC1EB85A1
:102B8000E5B98F890E94961C3C01FA89F7B92A851C
:102B900028B915B8388934B9FF24F39400E010E05F
:102BA0008F890E94961CE82E592E888D0E949C1CAD
:102BB0005C01801B910B97FF03C0909581959F4FFF
:102BC000039764F44F8544B9888D0E94961C4C018C
:102BD00050EC251654E4350648F00FC0A895F39440
:102BE00089E1F81609F476C18501DACF95E869160E
:102BF00091E0790608F06EC106C0A0EB6A16ADE45C
:102C00007A0608F067C1B4EAAB16B2E0BB0608F07A
:102C10006FC0E8E98E16910408F45CC1E0904101B0
:102C2000F0904201B30180E090E028E937EB40E00A
:102C300050E00E94562397012619370940E050E0E2
:102C40000E94952359016A01E818F90800E010E094
:102C5000C801B70128E937EB40E050E00E94562355
:102C6000940140E050E00E949523B901CA01F8E7C1
:102C70006F16FFE07F0640F412E0AA0CBB1CCC1CD0
:102C8000DD1C1A95D1F70CC028E782162FE09206BA
:102C9000B0F4B2E0660F771F881F991FBA95D1F77D
:102CA0006A0D7B1D8C1D9D1D25E030E040E050E04D
:102CB0000E949523C901DA01BC01CD0108C06A0D4B
:102CC0007B1D8C1D9D1D969587957795679524E6B0
:102CD00030E040E050E00E9456235B016C018CEA3A
:102CE0009DE0A0E0B0E0A80EB91ECA1EDB1E76C0B3
:102CF000A101C214D30408F4A6018E2D952D9C01C8
:102D000069012A153B0508F465014A01421553057E
:102D100008F44101B401641B750B80E090E0209140
:102D200015013091160140E050E00E945623209199
:102D30004101309142012819390940E050E00E94D8
:102D4000952379018A013601AC14BD0408F43501DC
:102D5000C618D708B60180E090E020910E013091AE
:102D60000F0140E050E00E945623930140E050E004
:102D70000E949523B901CA01A8E78A16AFE09A0616
:102D800040F4F2E0EE0CFF1C001F111FFA95D1F782
:102D90000CC0B8E76B16BFE07B06B0F4E2E0660F4C
:102DA000771F881F991FEA95D1F76E0D7F1D801F31
:102DB000911F25E030E040E050E00E949523C901DA
:102DC000DA015C016D010AC05B016C01AE0CBF1C35
:102DD000C01ED11ED694C794B794A79490901401A6
:102DE000E2E0E91508F476C020916E01222309F48F
:102DF00058C081E090E0821B910953E0880F991F31
:102E00005A95E1F766247724681A790A45E251E079
:102E1000640E751ED30116968C91B98D8B17D1F562
:102E2000F301E080F18002811381C601B5016E19C2
:102E30007F09800B910B97FF07C090958095709547
:102E400061957F4F8F4F9F4F2AE030E040E050E088
:102E50000E94562324E630E040E050E0E20EF31EEC
:102E6000041F151FEA0CFB1C0C1D1D1DA80197015A
:102E70000E949523211531054105510559F532E090
:102E8000931619F081E08093140181E0D301179625
:102E90008C9320C0F3018781882319F4215020935B
:102EA0006E0180916E01E82FF0E043E0EE0FFF1F0E
:102EB0004A95E1F7EB5DFE4FA082B182C282D382D8
:102EC000288D24833F893583498D468317828F5F00
:102ED00080936E0180914101909142019695879572
:102EE00096958795909342018093410180913F018F
:102EF000909140019695879596958795909340017E
:102F000080933F0189E180933D0188E087B988B9CA
:102F100014B815B86B960FB6F894DEBF0FBECDBFD0
:102F2000CF91DF911F910F91FF90EF90DF90CF90A5
:102F3000BF90AF909F908F907F906F905F904F90D9
:102F40003F902F90089580916D018F5F80936D0168
:102F50002223D9F2598D50936A01888D80936B0199
:102F60009F8990936C01D1CF21E080915B018F5FAD
:102F700080935B01222349F2A98DA0935801BF8958
:102F8000B0935901E88DE0935A01BFCF1F93182FDA
:102F900060FF03C085B1812B03C095B18095892363
:102FA00085B984B1812B84B982E090E00E94DD0470
:102FB00084B1912F9095892384B985B1982395B9CF
:102FC0001F910895BF92CF92DF92EF92FF920F93DD
:102FD0001F93CF93DF93DD2498E0C92E8FE3B82EA3
:102FE000C7B8C8B815B8B4B880E00E94961CEC0108
:102FF00081E00E949C1C8C0182E00E949C1CBC0110
:10300000809114018830C1F080E0C430D10508F40B
:1030100081E020E00430110508F421E08223282F0C
:1030200030E040E050E06430710510F441E050E0E1
:1030300024233523232B81F088E087B914B8D0935B
:103040000401C093030110930601009305017093DE
:103050000801609307014BC0C85ED34010F489E0BB
:1030600001C088E0085E134008F48260685E734027
:1030700008F4846087B900E010E0A89580E00E9421
:103080008A1C7C0181E00E949C1CEC0182E00E9471
:103090009C1C24E1E21625E0F20608F4389A25E0AB
:1030A000C431D20708F4399A25E08431920708F434
:1030B0003A9A26E0E216F10420F4269710F40697D7
:1030C00040F00F5F1F4F81E0043F1807B1F6C09238
:1030D0001401C0E0D0E003C00E94CA042196C017CA
:1030E000D107D0F3D3949AE0D91609F079CFDF91C4
:1030F000CF911F910F91FF90EF90DF90CF90BF90F5
:10310000089581E090E00E94E823382F82E090E06B
:103110000E94E82320914501230F30914601381F7A
:10312000209310013093110183E0283E380720F0EE
:10313000C901885E934002C080E090E062E370E0E5
:103140000E948123683008F067E0E0E2F1E0E60FDA
:10315000F11DE60FF11D459155912591359162E3E1
:10316000681B421B530B649FC001659F900D112487
:10317000499662E370E00E948123620F731F70938F
:1031800001016093000108950F931F93CF93DF9384
:103190008C0188E290E00E94DD040FC082E090E0A4
:1031A0000E94DD044F9902C081E00BC0A8952097D2
:1031B000A9F32A970FEF1FEF09F4E801D7FFEECF2D
:1031C00080E0DF91CF911F910F91089588E893E1FE
:1031D0000E94C41880EC0E94B7020E94230380EC76
:1031E0000E94B70208951F93609170017091710160
:1031F0008091720190917301109182010AC02AE0BE
:1032000030E040E050E00E949523C901DA01BC01A2
:10321000CD01212F1F5F613A36E8730731E0830744
:1032200030E0930760F720938201209141013091B3
:10323000420140E050E00E94562328E833E140E09C
:1032400050E00E94952320937001309371014093C8
:103250007201509373011F9108951F920F920FB640
:103260000F9211248F939F93B59904C080916F01A1
:10327000882349F4B59B10C0809186009091870007
:103280008A3F910548F480915E0190915F0101961B
:1032900090935F0180935E019F918F910F900FBE7D
:1032A0000F901F9018951F920F920FB60F92112436
:1032B0008F939F9310926F01B09B10C080918600F6
:1032C000909187008A3F910548F480915E0190912A
:1032D0005F01019690935F0180935E019F918F91B2
:1032E0000F900FBE0F901F9018954F925F926F92A4
:1032F0007F928F929F92AF92BF92CF92DF92EF9286
:10330000FF920F931F93CF93DF93782E562EA82E04
:10331000BB24262F2150C501880F991F8A0D9B1DA4
:10332000280F20935D01E62FF0E0E95BFB4F44910D
:10333000F501EF5BFB4F649080911401813009F43B
:10334000A7C230911201E6E8F1E0DF011C9620E00F
:1033500010C08681851551F48081871539F48D91CF
:103360009C9111978C5D954008F492C22F5F319625
:103370001296231770F388E0482E442A10927D019C
:1033800010927C01109270011092710110927201E2
:103390001092730184EF809382010E94E21788E00B
:1033A00088B915B847B814B8872D0E949C1C7C01B9
:1033B00010925F0110925E01EC012DC065B864B8F7
:1033C0000E94C50414B815B80E94CB04A895872D97
:1033D0000E949C1CE816F90618F0C0E0D0E003C07B
:1033E000EC01CE19DF0980915E0190915F018E376B
:1033F000910521F4CB34D10508F445C281E0CD32EA
:10340000D807A8F480915E0190915F010196909396
:103410005F0180935E0180915E0190915F01845F06
:10342000914060F251E0CD32D50708F42CC2809172
:103430005E0190915F01892B81F485E0C531D80749
:1034400008F097C00AC00E94C604872D0E949C1CE9
:103450009C01A8950F5F1F4F03C09E0100E010E084
:1034600080915E0190915F018017910760F7E216ED
:10347000F30618F060E070E00BC0B9016E197F0927
:103480006C177D0728F088249924CC24DD2421C0E2
:103490006E01C61AD70AD9F0B60180E090E028EE96
:1034A00033E040E050E00E9456239E0140E050E0AF
:1034B0000E949523490125E6C216D10450F080915F
:1034C0005E0190915F01892B09F455C0DCC188240D
:1034D0009924E0905E01F0905F010894E11CF11CDA
:1034E00000E010E0E0927801F092790100937A0117
:1034F00010937B01C6018C0F9D1F0E94591CA0E0F8
:10350000B0E0BC01CD01A80197010E945623609351
:1035100078017093790180937A0190937B01609395
:10352000700170937101809372019093730187EF22
:10353000809382010E94F318609170017091710173
:10354000809172019091730128EE33E040E050E0E9
:103550000E94562324E630E040E050E00E9495238C
:103560002093700130937101409372015093730165
:1035700048C188249924162D110F0E94E21715B80E
:103580008FE087B988E088B914B980E480937B0024
:1035900084E580BF872D806480937C0086E18093E2
:1035A0007A000E94CE0410925F0110925E01109288
:1035B0008000109285001092840087E286BB81E231
:1035C00080936F0091E090936F0115B98091140181
:1035D000843069F49093810081E090E002C0880F0C
:1035E000991FAA94E2F780958F7087B903C09093D2
:1035F000810047B8F89483B7817F83BF11C083B738
:10360000816083BF7894889583B78E7F83BFF89459
:10361000A89580915E0190915F018054964021F0C1
:1036200080916F01882359F7789410928100C0919E
:103630008600D091870010926F0086E980937A000F
:1036400014B815B8872D0E949C1C2091450130911B
:103650004601821B930B0C96909385018093840105
:1036600080915E0190915F018052934008F00BC100
:1036700080915E0190915F0190937B0180937A012C
:10368000D0937901C093780184EF80938201809177
:103690005E0190915F0182349105C8F060917801DC
:1036A0007091790180917A0190917B0124E630E05C
:1036B00040E050E00E9495232093780130937901F7
:1036C00040937A0150937B0186EF80938201609151
:1036D00000017091010180E090E02091780130912B
:1036E000790140917A0150917B010E94562320E29A
:1036F00033E040E050E00E9495232093780130931E
:10370000790140937A0150937B01E0E7F1E0209347
:1037100070013183428353830E94F31880918201A8
:10372000843F09F060C0E0907001F0907101009159
:1037300072011091730150EAE5165FE0F50650E062
:10374000050750E01507C0F4A80197012C543F4F1E
:103750004F4F5F4F60EA7FE080E090E00E9495234A
:10376000E20EF31E041F151FE0927001F09271012A
:10377000009372011093730180915D0190E08D5F61
:103780009F4F0E94E8232091700130917101409178
:1037900072015091730190E0A0E0B0E082179307AE
:1037A000A407B50768F4281B390B4A0B5B0B209361
:1037B000700130937101409372015093730113C0F3
:1037C0002C5E3F4F4F4F5F4F281739074A075B0763
:1037D00010F40E943F051092700110927101109236
:1037E00072011092730164B880917001909171011F
:1037F000A0917201B09173014997A105B10508F438
:1038000042C080911201882321F0809114018430FC
:10381000D1F587E08093140160918201809183014A
:103820008617BCF0681779F520917001309171010D
:1038300040917201509173018091740190917501D2
:10384000A0917601B091770182179307A407B5077D
:10385000D0F48091700190917101A0917201B091AA
:1038600073018093740190937501A0937601B093D6
:1038700077016093830190927F0180927E01509244
:1038800080017092810188E087B988B914B815B8B1
:10389000DF91CF911F910F91FF90EF90DF90CF902C
:1038A000BF90AF909F908F907F906F905F904F9060
:1038B00008950F9221E08C32920718F08C529140BB
:1038C00002C080E090E069E170E00E9481236B32E9
:1038D00018F499E1981B02C090E06BE2E8E6F0E092
:1038E000E60FF11DE60FF11D45915591259135919A
:1038F000692F421B530B649FC001659F900D1124DB
:103900000C9669E170E00E948123620F731FCB0166
:103910000F9008958F9384E090E00E94DD040BC027
:103920008F9382E090E00E94DD0405C08F9381E0D8
:1039300090E00E94DD048F911F93182F1064109364
:103940007C00E12FE07880913E01E81761F00E9451
:10395000CF048EE980937A0083E083BF889582E06C
:1039600083BFE0933E0120E030E0A901E0E01FC00A
:103970008EE980937A0083E083BF889582E083BFDD
:103980006091780070917900260F371F411D511DFD
:10399000E43061F480914001803041F084E02030D7
:1039A000380720F417FD02C01068C9CFEF5F80917F
:1039B0003D01E817E8F217FF05C060913F017091E3
:1039C000400104C0609141017091420180E090E0AB
:1039D0000E9456232FEF33E040E050E00E949523F1
:1039E000B901CA0120913D0130E040E050E00E9461
:1039F0009523C9011F9108952F923F925F926F9274
:103A00007F928F929F92AF92BF92CF92DF92EF926E
:103A1000FF920F931F93CF93DF9388E893E19093E6
:103A20004201809341018EEB80933D0118E018B96B
:103A300088E187B90E94D30417B984E00E94961CDC
:103A40008C018B5C9840835F9140C0F481E080934F
:103A50004B01609141017091420180E090E02FEBB9
:103A600039E040E050E00E945623980140E050E0E9
:103A70000E94952330934201209341018EE00E94E1
:103A80009C1C8EE00E94961C9093460180934501F9
:103A90000E94811880E090E00E94E823992787FD2A
:103AA00090952091450130914601820F931F90938C
:103AB000400180933F0159E0D52ED7B8FF24F394FD
:103AC000F5B8F4B880E00E94961C5C014AE0E42E50
:103AD000E7B804E005B904B981E00E94961C3C01F6
:103AE0003CE0532E57B810E115B914B982E00E949A
:103AF000961C6A0C7B1C680E791E15B8D8B8D7B80E
:103B0000F4B8209041013090420180E00E94961C60
:103B1000EC01E8B8E7B804B9A0904101B0904201C7
:103B200081E00E94961C7C0158B857B814B90091E6
:103B300041011091420182E00E94961CA20CB31C2C
:103B4000A00EB11EA81AB90AAE18BF08AC1ABD0A59
:103B500080914101909142017C01EE0CFF1CE80E26
:103B6000F91EE618F708EA18FB0800E010E08824C0
:103B70009924C401B30120E93AE140E050E00E94F9
:103B80005623A80197010E949523490130934A01C9
:103B900020934901CC24DD24C601B50120E93AE196
:103BA00040E050E00E945623A80197010E9495230F
:103BB000C90130934401209343018057954E90935F
:103BC00016018093150180E99AE1880E991E909262
:103BD0000F0180920E0189E180933D01DF91CF9129
:103BE0001F910F91FF90EF90DF90CF90BF90AF901B
:103BF0009F908F907F906F905F903F902F9008954F
:103C00000F931F93CF93DF938C0164E170E00E94C8
:103C1000812370E09B01220F331F82EC90E0280F7C
:103C2000391FF901C591D491AB014F5F5F4F440F2C
:103C3000551F480F591FFA01259134912C1B3D0B3C
:103C4000C80164E170E00E94812390E0AC01249FF0
:103C5000C001259F900D349F900D112464E170E008
:103C60000E9481236C0F7D1FCB01DF91CF911F91AB
:103C70000F9108952F923F924F925F926F927F9291
:103C80008F929F92AF92BF92CF92DF92EF92FF926C
:103C90000F931F93DF93CF93CDB7DEB763970FB624
:103CA000F894DEBF0FBECDBF1092020180911401C7
:103CB000813009F052C280916E01813009F04DC20D
:103CC0008091250190912601A0912701B0912801B2
:103CD00089509245A040B04008F03FC21B8A8B89B2
:103CE000823028F4F0902901D0902A0104C0F0908D
:103CF0002A01D0902901ED2DF0E0E95BFB4FA49063
:103D0000EF2DF0E0EF5BFB4F249115B898E098B9E8
:103D10008091250190912601A0912701B091280161
:103D2000803F9105A105B105C0F4AB89A0FD15C088
:103D300040900E0150900F0180E795EE480E591EFD
:103D40002A2D286081E090E00F2C02C0880F991F77
:103D50000A94E2F7282B27B908C024B98A2D886075
:103D600087B940900E0150900F01EE248F2D0E94D4
:103D7000901C8C018D2D0E949C1C0230110510F4AA
:103D8000029720F0E39494E1E91681F7A0E4A09370
:103D90007B00B4E5B0BF8F2D806480937C0026E16A
:103DA00020937A0010928000109285001092840077
:103DB00087E286BB0E94CE049B89292E3324D10141
:103DC000A170B070BA8BA98B90FD05C0B1E8B0931B
:103DD0008100A8B808C0A8B80E94D70420E226BB7A
:103DE00081E88093810020E030E086B3482F85FF92
:103DF00002C049010DC080FFF8CF91E096BBA895A5
:103E00002F5F3F4F2035310581F730E5832E912C10
:103E100010928100A0E2A6BB20918600309187001D
:103E2000390180918400909185002817390738F472
:103E300040FF05C0B1E0B6BB0894811C911C28E08E
:103E400028B986E980937A00EE248F2D0E94901C79
:103E50008C018D2D0E949C1C0230110510F40297DC
:103E600020F0E39494E1E91681F720912501309147
:103E700026018091490190914A01280F391F240D94
:103E8000351DE0911001F0911101A0E94A16AAE157
:103E90005A06C8F4B1EE6B1671048104910410F057
:103EA00089E107C0C30165E070E00E948123862F8D
:103EB0008451BF0168527040992787FD9095681B17
:103EC000790B86E00AC0C90160EB76E30E9481238A
:103ED000862F895FBF01685D7F4F90E0A0E0B0E072
:103EE00086159705A805B90528F4681A790A8A0A7B
:103EF0009B0A03C066247724430189899A89892B08
:103F000041F082E290E0A0E0B0E0680E791E8A1EE7
:103F10009B1E90E58916910418F0662477244301CE
:103F2000ABE06A1671048104910428F008946108DA
:103F30007108810891085901CC24DD2480E090E0CB
:103F400028EE33E040E050E00E9456237B018C01D4
:103F5000B20180E090E0209141013091420140E0C7
:103F600050E00E945623A60195010E94952340E04F
:103F700050E0C801B7010E949523DA01C9010E94EF
:103F8000001E7C01C601B501A40193010E945623C5
:103F90005B016C0100E010E023E0EE0CFF1C001F51
:103FA000111F2A95D1F785E090E0A0E0B0E0E80E7F
:103FB000F91E0A1F1B1FC801B7012AE030E040E0CC
:103FC00050E00E94952340E050E0C601B5010E94F8
:103FD0009523F101EE0FFF1FEE0FFF1FA1E0B0E0F0
:103FE000AC0FBD1FEA0FFB1F208331834283538335
:103FF00089899A89892BA9F49CE069167104810446
:10400000910478F0F1013196EE0FFF1FEE0FFF1FC4
:10401000EA0FFB1F2083318342835383AB89AF5F59
:10402000AB8BA895BB89BF5FBB8BB43008F457CE70
:1040300088E088B984E090E00E94DD0470E02D8182
:104040003E814F81588589819A81AB81BC818217DD
:104050009307A407B50708F471E02D853E854F85C9
:10406000588989859A85AB85BC8582179307A407F3
:10407000B50710F463E001C062E0E62FF0E0EE0F58
:10408000FF1FEE0FFF1FDE011196EA0FFB1F872FA8
:1040900090E0880F991F880F991FA80FB91F2081E2
:1040A0003181428153818D919D910D90BC91A02DC4
:1040B000281739074A075B0708F4762F872F90E007
:1040C000FC01EE0FFF1FEE0FFF1FEC0FFD1F4181E4
:1040D0005281638174814093090150930A01609376
:1040E0000B0170930C012BEF2093020180FD0DC09A
:1040F0008091250190912601A0912701B09128017E
:10410000803F9105A105B105B8F08CEF80930201C5
:104110004B5F5F4F6F4F7F4FCB01BA012AE030E01A
:1041200040E050E00E9495232093090130930A015A
:1041300040930B0150930C018091090190910A0169
:10414000A0910B01B0910C010097A105B10511F4EC
:104150001092020188E087B914B863960FB6F894FC
:10416000DEBF0FBECDBFCF91DF911F910F91FF90AA
:10417000EF90DF90CF90BF90AF909F908F907F9007
:104180006F905F904F903F902F9008952F923F92A5
:104190004F925F926F927F928F929F92AF92BF9257
:1041A000CF92DF92EF92FF920F931F93DF93CF9303
:1041B000CDB7DEB76E970FB6F894DEBF0FBECDBF9A
:1041C000662EB82E860F898320911401273019F5A9
:1041D00020917401309175014091760150917701E1
:1041E0001091830109C0CA01B9012AE0312D412D86
:1041F000512D0E9495231F5F173FACF32C8B3D8BF5
:104200004E8B5F8B243B60E036074105510518F467
:104210008FEF9FEF78C126EDA22E02C094EDA92E5C
:10422000E7E4F4E0E60DF11D859188608E87E7E410
:10423000F4E0EB0DF11D859188608F87E1E4F4E0F7
:10424000E60DF11D7590E1E4F4E0EB0DF11DC59074
:1042500090EC692AB92A81E0E82EF12C012D112D6C
:104260008E831F82188619861A861B861C861D86D9
:10427000188E198E0E94E21788E088B960927C003F
:104280000E94CF043F8537B975B874B80E94D40432
:104290000E94D80415B814B8DD24B4ED9B2EA6ED09
:1042A0008A2E3E8537B975B874B860927C00A8959F
:1042B000A0927A0080917A0086FDFCCFA0927A00CD
:1042C00080917A0086FDFCCF2090780030907900B4
:1042D000B0927C00A0927A0080917A0086FDFCCF9B
:1042E00080927A000E94D504C5B8C4B80E94D30455
:1042F0000E94D5040E94D9048F938F91A895A89508
:1043000014B815B880917A0086FDFCCF2091780012
:1043100030917900288B398B3F8537B9C5B8C4B83F
:10432000A895B0927C00A0927A0080917A0086FDD8
:10433000FCCFA0927A0080917A0086FDFCCF60913C
:1043400078007091790060927C00A0927A00809150
:104350007A0086FDFCCF80927A000E94D50475B861
:1043600074B80E94D3040E94D5040E94D9048F938C
:104370008F91A895A89514B815B880917A0086FDFC
:10438000FCCF409178005091790014B8CB01820D98
:10439000931DE80EF91E011D111DEA82FB820C839C
:1043A0001D8388899989840F951F2E813F81688597
:1043B0007985280F391F611D711D2E833F83688702
:1043C000798724E62417150650F075B874B80E9452
:1043D000D80414B815B8888D8395888F07C0483ED7
:1043E00073E0570718F08A8D83958A8F8889998999
:1043F00028171906B0F03E8537B9C5B8C4B80E9471
:10440000D8040E94D3040E94D5040E94D9048F933B
:104410008F91A895A89514B815B8898D8395898F23
:1044200007C0883E73E0970718F08A8D83958A8FBE
:10443000D3945D2D5F3F09F034CF409049015090F7
:104440004A01440C551C9201E4E0240D351DEA9507
:10445000E1F72901570168016E807F808884998483
:10446000209114012730C1F46C897D898E899F8940
:104470009B01AC016D5E7F4F8F4F9F4F0E94562373
:104480009B01AC016FE670EF85E89AE10E949523ED
:10449000621A730A840A950AA614B704C804D904D8
:1044A00028F46A187B088C089D0803C066247724CA
:1044B0004301B20180E090E09301A4010E945623E1
:1044C0009501A6010E9495238AE090E07981870FEB
:1044D000911D0E94E823682EC90160E170E00E94EE
:1044E0008123260F371FC9016816190618F486198B
:1044F000910909C08C5E9F4F8615910510F40E94AA
:104500003F05812D912D6E960FB6F894DEBF0FBE3C
:10451000CDBFCF91DF911F910F91FF90EF90DF9072
:10452000CF90BF90AF909F908F907F906F905F9053
:104530004F903F902F900895CF92DF92EF92FF928D
:104540000F931F93CF93DF9380917E0190917F0112
:10455000892B09F0A2C080918001E82FF0E0E95B8F
:10456000FB4F14911860E0918101F0E0EF5BFB4F8D
:1045700004910E94E21788E088B915B817B904B908
:10458000809181010E949C1C6C0180918301883F75
:104590000CF083C020917401309175014091760137
:1045A00050917701182F145F11C02B5F3F4F4F4F71
:1045B0005F4FCA01B9012AE030E040E050E00E94BC
:1045C0009523C901DA019C01AD011F5F143068F326
:1045D000DA01C9010197A109B10988589341A040A6
:1045E000B04008F05AC005B904B98901C0E0D0E074
:1045F00003C00E94D5042296C017D107D0F314B887
:1046000015B8A89585E080933D01809181010E94B5
:104610009C1CC816D90618F0EE24FF2403C07C01A8
:10462000EC18FD08C0E0D0E003C00E94D50421963C
:10463000C017D107D0F3809181010E949C1C9C017E
:1046400089E180933D01A895C216D30618F060E079
:1046500070E003C0B9016C197D096E157F05B0F4D7
:10466000C701861B970BBC0189F080E090E024EF26
:1046700031E040E050E00E945623970140E050E0D6
:104680000E94952330937F0120937E010E94E217C0
:1046900088E087B988B914B815B8DF91CF911F9118
:1046A0000F91FF90EF90DF90CF900895629FD0011F
:1046B000739FF001829FE00DF11D649FE00DF11DDD
:1046C000929FF00D839FF00D749FF00D659FF00D8C
:1046D0009927729FB00DE11DF91F639FB00DE11D79
:1046E000F91FBD01CF0111240895991B79E004C081
:1046F000991F961708F0961B881F7A95C9F7809521
:104700000895AA1BBB1B51E107C0AA1FBB1FA61718
:10471000B70710F0A61BB70B881F991F5A95A9F76A
:1047200080959095BC01CD010895A1E21A2EAA1B97
:10473000BB1BFD010DC0AA1FBB1FEE1FFF1FA21751
:10474000B307E407F50720F0A21BB30BE40BF50B4E
:10475000661F771F881F991F1A9469F760957095D7
:10476000809590959B01AC01BD01CF01089597FB09
:10477000092E05260ED057FD04D0D7DF0AD0001C25
:1047800038F450954095309521953F4F4F4F5F4FEE
:104790000895F6F790958095709561957F4F8F4FAE
:1047A0009F4F0895FB019F01423074F0453264F43D
:1047B000642F77270E948123805D8A330CF0895D06
:1047C0008193CB010097A1F71082C9010C940324B7
:1047D000F999FECF92BD81BDF89A992780B50895C9
:1047E000262FF999FECF1FBA92BD81BD20BD0FB60D
:1047F000F894FA9AF99A0FBE019608950E94F02350
:10480000272F0C94F123DC01FC01672F7191772392
:10481000E1F7329704C07C916D9370836291AE177B
:0A482000BF07C8F30895F894FFCF16
:02482A00580331
:00000001FF
